S010000032207261626F74612E7372656349
S113000012C02CC02BC02AC029C028C027C026C0BB
S11300106EC224C023C022C021C020C01FC01EC085
S11300201DC01CC01BC011241FBECFE5D4E0DEBF21
S1130030CDBF10E0A0E6B0E0E8E1F6E002C0059034
S11300400D92A437B107D9F720E0A4E7B0E001C0CE
S11300501D92A039B207E1F727D2DCC2D1CF8FEFCE
S113006081BB82BB87E087BB80E788BB089582E0C1
S11300708EBD89B7846089BF88E19CEF9DBD8CBD2E
S113008078940895B49922C0809164009091650099
S1130090892B11F181E090E020918200309183005E
S11300A0232B11F080E090E09093830080938200F2
S11300B010926500109264002FE788E391E02150CC
S11300C080409040E1F700C0000006C081E090E06D
S11300D09093650080936400B5993AC08091620062
S11300E090916300892BD1F181E090E0209184000C
S11300F030918500232B11F080E090E090938500EF
S1130100809384000197B1F481E090E090936700BC
S113011080936600109281001092800080918C0080
S113012090918D0090938B0080938A009093890026
S11301308093880010926300109262002FE788E396
S113014091E0215080409040E1F700C0000006C0DB
S113015081E090E09093630080936200B69954C06C
S11301608091600090916100892B09F453C08091C3
S11301708400909185000197C9F580916600909163
S11301806700892BB9F0109267001092660081E035
S113019090E0909381008093800080918C009091F6
S11301A08D0090938B0080938A00909389008093B4
S11301B088001CC081E090E0209180003091810093
S11301C0232B11F080E090E09093810080938000D5
S11301D0892B61F080918C0090918D0090938B001D
S11301E080938A0090938900809388001092610024
S11301F0109260002FE788E391E021508040904006
S1130200E1F700C00000089581E090E09093610060
S11302108093600008958091780090917900019610
S113022090937900809378000A9764F11092790092
S1130230109278008091820090918300892B89F438
S113024080918E0090918F00019690938F008093FF
S11302508E0080379105B4F010928F0010928E00BA
S1130260089580918E0090918F00019790938F0054
S113027080938E00992334F48FE690E090938F005E
S113028080938E0008958091660090916700892B79
S113029009F449C08091760090917700009789F520
S11302A0B49915C080918C0090918D000196909323
S11302B08D0080938C000D9724F010928D00109285
S11302C08C008AE090E09093770080937600B69952
S11302D01DC080918C0090918D00019790938D00AA
S11302E080938C00992334F48CE090E090938D00FB
S11302F080938C008AE090E090937700809376005E
S113030005C00197909377008093760080918C00CC
S113031090918D0090938B0080938A009093890034
S11303208093880008958091800090918100892BAA
S113033009F44DC0809174009091750001969093DA
S113034075008093740044970CF441C010927500BA
S1130350109274008091820090918300892BE1F4C3
S113036080918A0090918B008731910584F40196E5
S113037090938B0080938A002091880030918900AB
S1130380820F931F909389008093880008951092A0
S1130390810010928000089580918A0090918B00D2
S11303A01816190684F4019790938B0080938A00A1
S11303B02091880030918900820F931F90938900C7
S11303C0809388000895109281001092800008950F
S11303D0CF93DF939C01992314F420E030E02A307A
S11303E031056CF4C9016AE070E0EDD0EAE7F0E0B1
S11303F091838083138212821582148228C024364A
S113040031058CF4CAE0D0E0C901BE01DCD0EAE7D2
S1130410F0E091838083CB01BE01D5D093838283A6
S11304201582148214C0CAE0D0E0C901BE01CBD049
S1130430EAE7F0E091838083CB01BE01C4D09383CB
S11304408283C90164E670E0BED075836483DF9162
S1130450CF9108958091840090918500892B31F487
S113046080918E0090918F00B3DF08958091660093
S113047090916700892B31F080918C0090918D00D0
S1130480A7DF08958091800090918100892B31F03D
S113049080918A0090918B009BDF08958091880061
S11304A09091890095DF0895DADDE1DDEBDD80913F
S11304B0840090918500892B11F4ADDE01C0E3DE48
S11304C0C9DF2FE788E391E0215080409040E1F7B5
S11304D000C00000EBCF8B30910530F4FC01E859EB
S11304E0FF4F808182BB08958FEF82BB08951F92D6
S11304F00F920FB60F9211242F933F934F935F9354
S11305006F937F938F939F93AF93BF93EF93FF93D7
S113051088B3887F88BB809186009091870000977C
S113052079F488B3816088BB88B38D7F88BB88B336
S11305308B7F88BB80917A0090917B00CCDF1FC0B9
S1130540019779F488B3826088BB88B38E7F88BBB7
S113055088B38B7F88BB80917C0090917D00BBDF4A
S11305600EC088B3846088BB88B38E7F88BB88B391
S11305708D7F88BB80917E0090917F00ACDF80915D
S1130580860090918700019690938700809386005F
S1130590039724F0109287001092860088E19CEF64
S11305A09DBD8CBDFF91EF91BF91AF919F918F91B4
S11305B07F916F915F914F913F912F910F900FBE5B
S11305C00F901F90189597FB072E16F4009406D0F1
S11305D077FD08D00BD007FC05D03EF490958195AB
S11305E09F4F0895709561957F4F0895AA1BBB1B7B
S11305F051E107C0AA1FBB1FA617B70710F0A61B1F
S1130600B70B881F991F5A95A9F780959095BC013F
S10B0610CD010895F894FFCF19
S11306180100010001000100C0F9A4B0999282F818
S10706288090BF00FB
S9030000FC
