S01000007261626F746120352E7372656346
S113000012C02CC02BC02AC09FC028C027C026C045
S113001025C030C023C022C021C020C01FC01EC0C4
S11300201DC01CC01BC011241FBECFE5D4E0DEBF21
S1130030CDBF10E0A0E6B0E0E8EAF3E002C005902E
S11300400D92A637B107D9F720E0A6E7B0E001C0CA
S11300501D92A238B207E1F7A7D0A4C1D1CF87700F
S1130060806487B986B1806486B93699FECF84B13D
S113007095B108951F920F920FB60F9211248F938A
S1130080EF93FF9388B38F7088BB809178008823A7
S113009031F080916100882321F080E003C080E08A
S11300A001C081E0882319F08FEF82BB3AC08091B0
S11300B08100813079F4E0918100F0E0EE0FFF1FC0
S11300C0E758FF4F0190F081E02DEE59FF4F8081FA
S11300D082BB0EC0E0918100F0E0EE0FFF1FE758F5
S11300E0FF4F0190F081E02DE459FF4F808182BBE6
S11300F080918100813051F028F0823059F08330B2
S113010069F00FC088B3806188BB0BC088B380627C
S113011088BB07C088B3806488BB03C088B3806889
S113012088BB809181008F5F8093810080918100E2
S1130130843010F010928100FF91EF918F910F9015
S11301400FBE0F901F9018951F920F920FB60F922B
S113015011248F939F93809176009091770001965C
S11301609093770080937600809176009091770049
S1130170CD9798F0109277001092760080917800D5
S1130180882341F09091610081E0911180E0809397
S1130190610003C081E0809361009F918F910F9073
S11301A00FBE0F901F9018958FEF81BB80EF87BB18
S11301B014BA85B3846085BB87E886B983E083BFBE
S11301C089B7816089BF87E085BD89B7806489BFAD
S11301D0789480E044DFEC0181E041DFAC01181643
S11301E0190664F422E330E0DE01A8D09A01550F29
S11301F0440B550B87D069017A0103C0C12CD12C63
S11302007601FF201CF4C12CD12C760128EEC216F5
S113021023E0D206E104F10444F00F2EF7EECF2ED2
S1130220F3E0DF2EE12CF12CF02D83B390E09595D3
S1130230879595958795817090916000913031F5FF
S1130240811124C03FE798E321E0315090402040E1
S1130250E1F700C000009A9919C02091780091E05C
S1130260211190E09093780091E0909361001092B6
S11302707700109276009A9BFECF3FE798E321E047
S1130280315090402040E1F700C0000080936000AE
S113029080917800811125C0C701B60124E630E0C1
S11302A040E050E02FD0C9E7D0E0398328830F2EF7
S11302B0FAE08F2E912CA12CB12CF02DC701B601A0
S11302C0A50194011FD06B017C01CA01B901A501EC
S11302D0940118D07B836A83DD82CC821F821E82C4
S11302E00AC0E9E7F0E011821082138212821582BB
S11302F01482178216828FE39CE90197F1F700C0FC
S1130300000067CF052E97FB16F400940FD057FD1D
S113031005D01AD007FC02D046F408C05095409589
S1130320309521953F4F4F4F5F4F0895909580959D
S1130330709561957F4F8F4F9F4F089527D0B7FFDA
S11303400895821B930B0895A1E21A2EAA1BBB1BCE
S1130350FD010DC0AA1FBB1FEE1FFF1FA217B3078D
S1130360E407F50720F0A21BB30BE40BF50B661FA3
S1130370771F881F991F1A9469F760957095809567
S113038090959B01AC01BD01CF010895A29FB001DE
S1130390B39FC001A39F01D0B29F700D811D112492
S10B03A0911D0895F894FFCFAC
S11303A8010140792430191202780010C0F9A4B070
S10903B8999282F8809086
S9030000FC
