S00E00007072616374312E73726563CB
S113000012C021C020C01FC01EC01DC01CC01BC008
S11300101AC019C018C017C016C015C014C013C028
S113002012C011C010C011241FBECFE5D4E0DEBF42
S1130030CDBF20E0A0E6B0E001C01D92A436B20717
S1130040E1F754D190C1DCCF8FEF81BB12BA84BBEE
S113005015BA87B38C7F87BB88B3836088BB089548
S1130060B0990FC09091630081E089278093630069
S11300702FE789EA93E0215080409040E1F700C0E7
S11300800000B19911C09091620081E089278093AA
S11300906200109263002FE789EA93E021508040C8
S11300A09040E1F700C000000895CF93C0E0C7304E
S11300B0C8F4D6DF81E090E00C2E02C0880F991FAF
S11300C00A94E2F785BB2FE739EA43E02150304038
S11300D04040E1F700C0000095B38095892385BBBB
S11300E0CF5FE5CF85B38F7B85BBBADFC0E0C73078
S11300F0C8F4B6DF81E090E00C2E02C0880F991F8F
S11301000A94E2F782BB2FE739EA43E021503040FA
S11301104040E1F700C0000092B38095892382BB80
S1130120CF5FE5CF82B38F7B82BBCF910895CF930E
S1130130DF93C6E0D0E0DD2314F192DF81E090E0AC
S11301400C2E02C0880F991F0A94E2F782BB3FE786
S113015049EA23E0315040402040E1F700C000006C
S113016092B38095892382BB3FE749EA83E031500B
S113017040408040E1F700C000002197DCCF82B30B
S11301808E7F82BB6DDF82B38F7782BBC6E0D0E007
S1130190DD2314F165DF81E090E00C2E02C0880FAE
S11301A0991F0A94E2F785BB3FE749EA23E03150FF
S11301B040402040E1F700C0000095B380958923BA
S11301C085BB3FE749EA83E0315040408040E1F796
S11301D000C000002197DCCF85B38E7F85BBDF9103
S11301E0CF9108953DDF15BA12BA20E0243040F5CE
S11301F030916100822F90E0830F911D6FE070E0D9
S11302008BD0883068F435B341E050E0BA0102C0C5
S1130210660F771F8A95E2F7CB01832B85BB0EC04F
S113022032B39927089741E050E0BA0102C0660F43
S1130230771F8A95E2F7CB01832B82BB2F5FD6CF42
S11302408091610090E001966FE070E065D080934A
S113025061007FE789EA93E0715080409040E1F7C4
S113026000C00000FDDE0895FBDE15BA12BA20E0DE
S1130270243040F58091600090E0821B91090E9635
S11302806FE070E049D0883068F435B341E050E065
S1130290BA0102C0660F771F8A95E2F7CB01832B60
S11302A085BB0EC032B39927089741E050E0BA01EC
S11302B002C0660F771F8A95E2F7CB01832B82BBBE
S11302C02F5FD6CF8091600090E001976FE070E0DF
S11302D023D0809360007FE789EA93E071508040E7
S11302E09040E1F700C00000BBDE0895ADDEB8DE4B
S11302F080916200811108C080916300811102C065
S1130300D4DEF5CF14DFF3CF80916300811102C0F6
S113031069DFEDCFA9DFEBCF97FB072E16F400942E
S113032006D077FD08D00BD007FC05D03EF490959D
S113033081959F4F0895709561957F4F0895AA1BED
S1130340BB1B51E107C0AA1FBB1FA617B70710F0BC
S1130350A61BB70B881F991F5A95A9F780959095EE
S10D0360BC01CD010895F894FFCF0D
S9030000FC
