:1000000013C037C036C035C034C033C032C031C071
:1000100030C08DC02EC02DC02CC02BC02AC029C01E
:1000200028C027C026C0780111241FBECFE5D4E028
:10003000DEBFCDBF10E0A0E6B0E0EAE5F3E002C02D
:1000400005900D92A837B107D9F720E0A8E7B0E0F6
:1000500001C01D92AC37B207E1F710E0C4E1D0E077
:1000600003C02197FE0171D1C331D107D1F728D147
:1000700072C1C6CF019781F46F3F7F4F69F48091C1
:1000800068009091690099230CF4019695958795E5
:1000900090937B0080937A0008958FE087BB18BA15
:1000A00014BA8FEF85BB81BB12BA089583E083BF7A
:1000B00089B7816089BF789408958FB580688FBDB6
:1000C0008FB582608FBD8EB588618EBD8EB5826022
:1000D0008EBD8FEF90E097BD86BD809168009091B6
:1000E000690099230CF40196959587959BBD8ABD6F
:1000F00008952FEFAC01249FC001259F900D11247E
:1001000064E670E0FBD07BBD6ABD08956AE070E0F4
:10011000F5D0E0E6F0E073836283958384830895ED
:1001200084599F4FFC018081809582BB08951F9266
:100130000F920FB60F9211242F933F934F935F931B
:100140006F937F938F939F93AF93BF93EF93FF939F
:100150008091780090917900009779F488B381605C
:1001600088BB88B3877F88BB88B38B7F88BB80912F
:10017000640090916500D4DF1FC0019779F488B3C3
:10018000886088BB88B38E7F88BB88B38B7F88BB31
:100190008091620090916300C3DF0EC088B38460D9
:1001A00088BB88B38E7F88BB88B3877F88BB8091EC
:1001B000600090916100B4DF8091780090917900A7
:1001C00001969093790080937800039724F0109221
:1001D000790010927800FF91EF91BF91AF919F91BC
:1001E0008F917F916F915F914F913F912F910F90E0
:1001F0000FBE0F901F901895989904C0999B04C04A
:1002000080E003C080E001C081E0882349F0809154
:1002100066009091670090937B0080937A00089528
:1002200098990DC040917A0050917B0020916A000E
:1002300030916B002417350724F0982F03C0982FB6
:1002400001C091E09923B1F020917A0030917B00B8
:1002500040916A0050916B00241735072CF450939D
:100260007B0040937A0006C02150310930937B0017
:1002700020937A0099990CC040917A0050917B00AC
:100280002091680030916900421753070CF481E017
:100290008823A9F080917A0090917B0020916800DA
:1002A00030916900281739072CF430937B00209394
:1002B0007A000895019690937B0080937A000895C8
:1002C000ECDEF4DEFADE98DF80917A0090917B001C
:1002D0001DDF80917A0090917B000BDF2FEF80E78C
:1002E00092E0215080409040E1F700C00000EBCF49
:1002F0006FEF7FEF81E090E0BDDE089597FB072E62
:1003000016F4009406D077FD08D00BD007FC05D07A
:100310003EF4909581959F4F0895709561957F4F1C
:100320000895AA1BBB1B51E107C0AA1FBB1FA6173C
:10033000B70710F0A61BB70B881F991F5A95A9F78E
:1003400080959095BC01CD010895EE0FFF1F05909B
:0A035000F491E02D0994F894FFCF1A
:10035A000A00000000001E005A001E003F065B4F04
:08036A00666D7D077F6FF30053
:00000001FF
